{
  "_format": "hh-sol-artifact-1",
  "contractName": "FuelChainState",
  "sourceName": "contracts/fuelchain/FuelChainState.sol",
  "abi": [
    {
      "inputs": [],
      "stateMutability": "nonpayable",
      "type": "constructor"
    },
    {
      "inputs": [],
      "name": "UnknownBlock",
      "type": "error"
    },
    {
      "anonymous": false,
      "inputs": [
        {
          "indexed": false,
          "internalType": "address",
          "name": "previousAdmin",
          "type": "address"
        },
        {
          "indexed": false,
          "internalType": "address",
          "name": "newAdmin",
          "type": "address"
        }
      ],
      "name": "AdminChanged",
      "type": "event"
    },
    {
      "anonymous": false,
      "inputs": [
        {
          "indexed": true,
          "internalType": "address",
          "name": "beacon",
          "type": "address"
        }
      ],
      "name": "BeaconUpgraded",
      "type": "event"
    },
    {
      "anonymous": false,
      "inputs": [
        {
          "indexed": true,
          "internalType": "uint256",
          "name": "commitHeight",
          "type": "uint256"
        },
        {
          "indexed": false,
          "internalType": "bytes32",
          "name": "blockHash",
          "type": "bytes32"
        }
      ],
      "name": "CommitSubmitted",
      "type": "event"
    },
    {
      "anonymous": false,
      "inputs": [
        {
          "indexed": false,
          "internalType": "uint8",
          "name": "version",
          "type": "uint8"
        }
      ],
      "name": "Initialized",
      "type": "event"
    },
    {
      "anonymous": false,
      "inputs": [
        {
          "indexed": false,
          "internalType": "address",
          "name": "account",
          "type": "address"
        }
      ],
      "name": "Paused",
      "type": "event"
    },
    {
      "anonymous": false,
      "inputs": [
        {
          "indexed": true,
          "internalType": "bytes32",
          "name": "role",
          "type": "bytes32"
        },
        {
          "indexed": true,
          "internalType": "bytes32",
          "name": "previousAdminRole",
          "type": "bytes32"
        },
        {
          "indexed": true,
          "internalType": "bytes32",
          "name": "newAdminRole",
          "type": "bytes32"
        }
      ],
      "name": "RoleAdminChanged",
      "type": "event"
    },
    {
      "anonymous": false,
      "inputs": [
        {
          "indexed": true,
          "internalType": "bytes32",
          "name": "role",
          "type": "bytes32"
        },
        {
          "indexed": true,
          "internalType": "address",
          "name": "account",
          "type": "address"
        },
        {
          "indexed": true,
          "internalType": "address",
          "name": "sender",
          "type": "address"
        }
      ],
      "name": "RoleGranted",
      "type": "event"
    },
    {
      "anonymous": false,
      "inputs": [
        {
          "indexed": true,
          "internalType": "bytes32",
          "name": "role",
          "type": "bytes32"
        },
        {
          "indexed": true,
          "internalType": "address",
          "name": "account",
          "type": "address"
        },
        {
          "indexed": true,
          "internalType": "address",
          "name": "sender",
          "type": "address"
        }
      ],
      "name": "RoleRevoked",
      "type": "event"
    },
    {
      "anonymous": false,
      "inputs": [
        {
          "indexed": false,
          "internalType": "address",
          "name": "account",
          "type": "address"
        }
      ],
      "name": "Unpaused",
      "type": "event"
    },
    {
      "anonymous": false,
      "inputs": [
        {
          "indexed": true,
          "internalType": "address",
          "name": "implementation",
          "type": "address"
        }
      ],
      "name": "Upgraded",
      "type": "event"
    },
    {
      "inputs": [],
      "name": "BLOCKS_PER_COMMIT_INTERVAL",
      "outputs": [
        {
          "internalType": "uint256",
          "name": "",
          "type": "uint256"
        }
      ],
      "stateMutability": "view",
      "type": "function"
    },
    {
      "inputs": [],
      "name": "COMMITTER_ROLE",
      "outputs": [
        {
          "internalType": "bytes32",
          "name": "",
          "type": "bytes32"
        }
      ],
      "stateMutability": "view",
      "type": "function"
    },
    {
      "inputs": [],
      "name": "DEFAULT_ADMIN_ROLE",
      "outputs": [
        {
          "internalType": "bytes32",
          "name": "",
          "type": "bytes32"
        }
      ],
      "stateMutability": "view",
      "type": "function"
    },
    {
      "inputs": [],
      "name": "NUM_COMMIT_SLOTS",
      "outputs": [
        {
          "internalType": "uint256",
          "name": "",
          "type": "uint256"
        }
      ],
      "stateMutability": "view",
      "type": "function"
    },
    {
      "inputs": [],
      "name": "PAUSER_ROLE",
      "outputs": [
        {
          "internalType": "bytes32",
          "name": "",
          "type": "bytes32"
        }
      ],
      "stateMutability": "view",
      "type": "function"
    },
    {
      "inputs": [],
      "name": "TIME_TO_FINALIZE",
      "outputs": [
        {
          "internalType": "uint256",
          "name": "",
          "type": "uint256"
        }
      ],
      "stateMutability": "view",
      "type": "function"
    },
    {
      "inputs": [
        {
          "internalType": "uint256",
          "name": "commitHeight",
          "type": "uint256"
        }
      ],
      "name": "blockHashAtCommit",
      "outputs": [
        {
          "internalType": "bytes32",
          "name": "",
          "type": "bytes32"
        }
      ],
      "stateMutability": "view",
      "type": "function"
    },
    {
      "inputs": [
        {
          "internalType": "bytes32",
          "name": "blockHash",
          "type": "bytes32"
        },
        {
          "internalType": "uint256",
          "name": "commitHeight",
          "type": "uint256"
        }
      ],
      "name": "commit",
      "outputs": [],
      "stateMutability": "nonpayable",
      "type": "function"
    },
    {
      "inputs": [
        {
          "internalType": "bytes32",
          "name": "blockHash",
          "type": "bytes32"
        },
        {
          "internalType": "uint256",
          "name": "blockHeight",
          "type": "uint256"
        }
      ],
      "name": "finalized",
      "outputs": [
        {
          "internalType": "bool",
          "name": "",
          "type": "bool"
        }
      ],
      "stateMutability": "view",
      "type": "function"
    },
    {
      "inputs": [
        {
          "internalType": "bytes32",
          "name": "role",
          "type": "bytes32"
        }
      ],
      "name": "getRoleAdmin",
      "outputs": [
        {
          "internalType": "bytes32",
          "name": "",
          "type": "bytes32"
        }
      ],
      "stateMutability": "view",
      "type": "function"
    },
    {
      "inputs": [
        {
          "internalType": "bytes32",
          "name": "role",
          "type": "bytes32"
        },
        {
          "internalType": "address",
          "name": "account",
          "type": "address"
        }
      ],
      "name": "grantRole",
      "outputs": [],
      "stateMutability": "nonpayable",
      "type": "function"
    },
    {
      "inputs": [
        {
          "internalType": "bytes32",
          "name": "role",
          "type": "bytes32"
        },
        {
          "internalType": "address",
          "name": "account",
          "type": "address"
        }
      ],
      "name": "hasRole",
      "outputs": [
        {
          "internalType": "bool",
          "name": "",
          "type": "bool"
        }
      ],
      "stateMutability": "view",
      "type": "function"
    },
    {
      "inputs": [],
      "name": "initialize",
      "outputs": [],
      "stateMutability": "nonpayable",
      "type": "function"
    },
    {
      "inputs": [],
      "name": "pause",
      "outputs": [],
      "stateMutability": "nonpayable",
      "type": "function"
    },
    {
      "inputs": [],
      "name": "paused",
      "outputs": [
        {
          "internalType": "bool",
          "name": "",
          "type": "bool"
        }
      ],
      "stateMutability": "view",
      "type": "function"
    },
    {
      "inputs": [],
      "name": "proxiableUUID",
      "outputs": [
        {
          "internalType": "bytes32",
          "name": "",
          "type": "bytes32"
        }
      ],
      "stateMutability": "view",
      "type": "function"
    },
    {
      "inputs": [
        {
          "internalType": "bytes32",
          "name": "role",
          "type": "bytes32"
        },
        {
          "internalType": "address",
          "name": "account",
          "type": "address"
        }
      ],
      "name": "renounceRole",
      "outputs": [],
      "stateMutability": "nonpayable",
      "type": "function"
    },
    {
      "inputs": [
        {
          "internalType": "bytes32",
          "name": "role",
          "type": "bytes32"
        },
        {
          "internalType": "address",
          "name": "account",
          "type": "address"
        }
      ],
      "name": "revokeRole",
      "outputs": [],
      "stateMutability": "nonpayable",
      "type": "function"
    },
    {
      "inputs": [
        {
          "internalType": "bytes4",
          "name": "interfaceId",
          "type": "bytes4"
        }
      ],
      "name": "supportsInterface",
      "outputs": [
        {
          "internalType": "bool",
          "name": "",
          "type": "bool"
        }
      ],
      "stateMutability": "view",
      "type": "function"
    },
    {
      "inputs": [],
      "name": "unpause",
      "outputs": [],
      "stateMutability": "nonpayable",
      "type": "function"
    },
    {
      "inputs": [
        {
          "internalType": "address",
          "name": "newImplementation",
          "type": "address"
        }
      ],
      "name": "upgradeTo",
      "outputs": [],
      "stateMutability": "nonpayable",
      "type": "function"
    },
    {
      "inputs": [
        {
          "internalType": "address",
          "name": "newImplementation",
          "type": "address"
        },
        {
          "internalType": "bytes",
          "name": "data",
          "type": "bytes"
        }
      ],
      "name": "upgradeToAndCall",
      "outputs": [],
      "stateMutability": "payable",
      "type": "function"
    }
  ],
  "bytecode": "0x60a06040523060805234801561001457600080fd5b5061001d610022565b6100e2565b600054610100900460ff161561008e5760405162461bcd60e51b815260206004820152602760248201527f496e697469616c697a61626c653a20636f6e747261637420697320696e697469604482015266616c697a696e6760c81b606482015260840160405180910390fd5b60005460ff90811610156100e0576000805460ff191660ff9081179091556040519081527f7f26b83ff96e1f2b6a682f133852f6798a09c465da95921460cefb38474024989060200160405180910390a15b565b608051611e8f610119600039600081816105ef01528181610685015281816107d40152818161086a01526109950152611e8f6000f3fe6080604052600436106101755760003560e01c8063735808b7116100cb578063a42747da1161007f578063dc801def11610059578063dc801def146103e0578063e63ab1e9146103f5578063e900ead81461042957600080fd5b8063a42747da146102f8578063c8902398146103a0578063d547741f146103c057600080fd5b80638456cb59116100b05780638456cb591461032357806391d1485414610338578063a217fddf1461038b57600080fd5b8063735808b7146102f85780638129fc1c1461030e57600080fd5b806336568abe1161012d5780634f1ef286116101075780634f1ef286146102b857806352d1902d146102cb5780635c975abb146102e057600080fd5b806336568abe146102635780633659cfe6146102835780633f4ba83a146102a357600080fd5b8063248a9ca31161015e578063248a9ca3146101f15780632f2ff15d1461022157806331c8b8171461024357600080fd5b806301ffc9a71461017a5780631a7c3f73146101af575b600080fd5b34801561018657600080fd5b5061019a6101953660046119c4565b610449565b60405190151581526020015b60405180910390f35b3480156101bb57600080fd5b506101e37f0b60b5d7f7e737e4561eecda7c6a01e19e626c495c26e6f45e5b255f76a2010681565b6040519081526020016101a6565b3480156101fd57600080fd5b506101e361020c366004611a06565b60009081526097602052604090206001015490565b34801561022d57600080fd5b5061024161023c366004611a48565b6104e2565b005b34801561024f57600080fd5b506101e361025e366004611a06565b61050c565b34801561026f57600080fd5b5061024161027e366004611a48565b610539565b34801561028f57600080fd5b5061024161029e366004611a74565b6105d7565b3480156102af57600080fd5b506102416107a9565b6102416102c6366004611abe565b6107bc565b3480156102d757600080fd5b506101e361097b565b3480156102ec57600080fd5b5060335460ff1661019a565b34801561030457600080fd5b506101e3612a3081565b34801561031a57600080fd5b50610241610a4d565b34801561032f57600080fd5b50610241610c15565b34801561034457600080fd5b5061019a610353366004611a48565b600091825260976020908152604080842073ffffffffffffffffffffffffffffffffffffffff93909316845291905290205460ff1690565b34801561039757600080fd5b506101e3600081565b3480156103ac57600080fd5b5061019a6103bb366004611b9e565b610c47565b3480156103cc57600080fd5b506102416103db366004611a48565b610ce6565b3480156103ec57600080fd5b506101e360f081565b34801561040157600080fd5b506101e37f65d7a28e3265b37a6474929f336521b332c1681b933f6cb9f3376673440d862a81565b34801561043557600080fd5b50610241610444366004611b9e565b610d0b565b60007fffffffff0000000000000000000000000000000000000000000000000000000082167f7965db0b0000000000000000000000000000000000000000000000000000000014806104dc57507f01ffc9a7000000000000000000000000000000000000000000000000000000007fffffffff000000000000000000000000000000000000000000000000000000008316145b92915050565b6000828152609760205260409020600101546104fd81610dda565b6105078383610de4565b505050565b60008061012d61051d60f085611bef565b60f0811061052d5761052d611c03565b60020201549392505050565b73ffffffffffffffffffffffffffffffffffffffff811633146105c95760405162461bcd60e51b815260206004820152602f60248201527f416363657373436f6e74726f6c3a2063616e206f6e6c792072656e6f756e636560448201527f20726f6c657320666f722073656c66000000000000000000000000000000000060648201526084015b60405180910390fd5b6105d38282610eba565b5050565b3073ffffffffffffffffffffffffffffffffffffffff7f00000000000000000000000000000000000000000000000000000000000000001614156106835760405162461bcd60e51b815260206004820152602c60248201527f46756e6374696f6e206d7573742062652063616c6c6564207468726f7567682060448201527f64656c656761746563616c6c000000000000000000000000000000000000000060648201526084016105c0565b7f000000000000000000000000000000000000000000000000000000000000000073ffffffffffffffffffffffffffffffffffffffff166106f87f360894a13ba1a3210667c828492db98dca3e2076cc3735a920a3ca505d382bbc5473ffffffffffffffffffffffffffffffffffffffff1690565b73ffffffffffffffffffffffffffffffffffffffff16146107815760405162461bcd60e51b815260206004820152602c60248201527f46756e6374696f6e206d7573742062652063616c6c6564207468726f7567682060448201527f6163746976652070726f7879000000000000000000000000000000000000000060648201526084016105c0565b61078a81610f57565b604080516000808252602082019092526107a691839190610f62565b50565b60006107b481610dda565b6107a661113c565b3073ffffffffffffffffffffffffffffffffffffffff7f00000000000000000000000000000000000000000000000000000000000000001614156108685760405162461bcd60e51b815260206004820152602c60248201527f46756e6374696f6e206d7573742062652063616c6c6564207468726f7567682060448201527f64656c656761746563616c6c000000000000000000000000000000000000000060648201526084016105c0565b7f000000000000000000000000000000000000000000000000000000000000000073ffffffffffffffffffffffffffffffffffffffff166108dd7f360894a13ba1a3210667c828492db98dca3e2076cc3735a920a3ca505d382bbc5473ffffffffffffffffffffffffffffffffffffffff1690565b73ffffffffffffffffffffffffffffffffffffffff16146109665760405162461bcd60e51b815260206004820152602c60248201527f46756e6374696f6e206d7573742062652063616c6c6564207468726f7567682060448201527f6163746976652070726f7879000000000000000000000000000000000000000060648201526084016105c0565b61096f82610f57565b6105d382826001610f62565b60003073ffffffffffffffffffffffffffffffffffffffff7f00000000000000000000000000000000000000000000000000000000000000001614610a285760405162461bcd60e51b815260206004820152603860248201527f555550535570677261646561626c653a206d757374206e6f742062652063616c60448201527f6c6564207468726f7567682064656c656761746563616c6c000000000000000060648201526084016105c0565b507f360894a13ba1a3210667c828492db98dca3e2076cc3735a920a3ca505d382bbc90565b600054610100900460ff1615808015610a6d5750600054600160ff909116105b80610a875750303b158015610a87575060005460ff166001145b610af95760405162461bcd60e51b815260206004820152602e60248201527f496e697469616c697a61626c653a20636f6e747261637420697320616c72656160448201527f647920696e697469616c697a656400000000000000000000000000000000000060648201526084016105c0565b6000805460ff191660011790558015610b3957600080547fffffffffffffffffffffffffffffffffffffffffffffffffffffffffffff00ff166101001790555b610b4161119b565b610b49611222565b610b51611222565b610b5c600033610de4565b610b867f65d7a28e3265b37a6474929f336521b332c1681b933f6cb9f3376673440d862a33610de4565b610bb07f0b60b5d7f7e737e4561eecda7c6a01e19e626c495c26e6f45e5b255f76a2010633610de4565b80156107a657600080547fffffffffffffffffffffffffffffffffffffffffffffffffffffffffffff00ff169055604051600181527f7f26b83ff96e1f2b6a682f133852f6798a09c465da95921460cefb38474024989060200160405180910390a150565b7f65d7a28e3265b37a6474929f336521b332c1681b933f6cb9f3376673440d862a610c3f81610dda565b6107a661129f565b6000610c516112dc565b6000610c5f612a3084611c61565b9050600061012d610c7160f084611bef565b60f08110610c8157610c81611c03565b6002020180549091508514610cc2576040517f79a3cb5f00000000000000000000000000000000000000000000000000000000815260040160405180910390fd5b6001810154610cda90612a309063ffffffff16611c75565b42101595945050505050565b600082815260976020526040902060010154610d0181610dda565b6105078383610eba565b610d136112dc565b7f0b60b5d7f7e737e4561eecda7c6a01e19e626c495c26e6f45e5b255f76a20106610d3d81610dda565b6000610d4a60f084611bef565b9050600061012d8260f08110610d6257610d62611c03565b600202018581556001810180547fffffffffffffffffffffffffffffffffffffffffffffffffffffffff00000000164263ffffffff1617905560405186815290915084907f1216b936e7a60e132d92c23737227ff7219df68ab525a98fa65f09b655f31e329060200160405180910390a25050505050565b6107a6813361132f565b600082815260976020908152604080832073ffffffffffffffffffffffffffffffffffffffff8516845290915290205460ff166105d357600082815260976020908152604080832073ffffffffffffffffffffffffffffffffffffffff851684529091529020805460ff19166001179055610e5c3390565b73ffffffffffffffffffffffffffffffffffffffff168173ffffffffffffffffffffffffffffffffffffffff16837f2f8788117e7eff1d82e926ec794901d17c78024a50270940304540a733656f0d60405160405180910390a45050565b600082815260976020908152604080832073ffffffffffffffffffffffffffffffffffffffff8516845290915290205460ff16156105d357600082815260976020908152604080832073ffffffffffffffffffffffffffffffffffffffff85168085529252808320805460ff1916905551339285917ff6391f5c32d9c69d2a47ea670b442974b53935d1edc7fd64eb21e047a839171b9190a45050565b60006105d381610dda565b7f4910fdfa16fed3260ed0e7147f7cc6da11a60208b5b9406d12a635614ffd91435460ff1615610f9557610507836113cf565b8273ffffffffffffffffffffffffffffffffffffffff166352d1902d6040518163ffffffff1660e01b815260040160206040518083038186803b158015610fdb57600080fd5b505afa925050508015611029575060408051601f3d9081017fffffffffffffffffffffffffffffffffffffffffffffffffffffffffffffffe016820190925261102691810190611c8d565b60015b61109b5760405162461bcd60e51b815260206004820152602e60248201527f45524331393637557067726164653a206e657720696d706c656d656e7461746960448201527f6f6e206973206e6f74205555505300000000000000000000000000000000000060648201526084016105c0565b7f360894a13ba1a3210667c828492db98dca3e2076cc3735a920a3ca505d382bbc81146111305760405162461bcd60e51b815260206004820152602960248201527f45524331393637557067726164653a20756e737570706f727465642070726f7860448201527f6961626c6555554944000000000000000000000000000000000000000000000060648201526084016105c0565b506105078383836114bf565b6111446114ea565b6033805460ff191690557f5db9ee0a495bf2e6ff9c91a7834c1ba4fdd244a5e8aa4e537bd38aeae4b073aa335b60405173ffffffffffffffffffffffffffffffffffffffff909116815260200160405180910390a1565b600054610100900460ff166112185760405162461bcd60e51b815260206004820152602b60248201527f496e697469616c697a61626c653a20636f6e7472616374206973206e6f74206960448201527f6e697469616c697a696e6700000000000000000000000000000000000000000060648201526084016105c0565b61122061153c565b565b600054610100900460ff166112205760405162461bcd60e51b815260206004820152602b60248201527f496e697469616c697a61626c653a20636f6e7472616374206973206e6f74206960448201527f6e697469616c697a696e6700000000000000000000000000000000000000000060648201526084016105c0565b6112a76112dc565b6033805460ff191660011790557f62e78cea01bee320cd4e420270b5ea74000d11b0c9f74754ebdbfc544b05a2586111713390565b60335460ff16156112205760405162461bcd60e51b815260206004820152601060248201527f5061757361626c653a207061757365640000000000000000000000000000000060448201526064016105c0565b600082815260976020908152604080832073ffffffffffffffffffffffffffffffffffffffff8516845290915290205460ff166105d35761136f816115c5565b61137a8360206115e4565b60405160200161138b929190611cd2565b604080517fffffffffffffffffffffffffffffffffffffffffffffffffffffffffffffffe08184030181529082905262461bcd60e51b82526105c091600401611d53565b73ffffffffffffffffffffffffffffffffffffffff81163b6114595760405162461bcd60e51b815260206004820152602d60248201527f455243313936373a206e657720696d706c656d656e746174696f6e206973206e60448201527f6f74206120636f6e74726163740000000000000000000000000000000000000060648201526084016105c0565b7f360894a13ba1a3210667c828492db98dca3e2076cc3735a920a3ca505d382bbc80547fffffffffffffffffffffffff00000000000000000000000000000000000000001673ffffffffffffffffffffffffffffffffffffffff92909216919091179055565b6114c883611814565b6000825111806114d55750805b15610507576114e48383611861565b50505050565b60335460ff166112205760405162461bcd60e51b815260206004820152601460248201527f5061757361626c653a206e6f742070617573656400000000000000000000000060448201526064016105c0565b600054610100900460ff166115b95760405162461bcd60e51b815260206004820152602b60248201527f496e697469616c697a61626c653a20636f6e7472616374206973206e6f74206960448201527f6e697469616c697a696e6700000000000000000000000000000000000000000060648201526084016105c0565b6033805460ff19169055565b60606104dc73ffffffffffffffffffffffffffffffffffffffff831660145b606060006115f3836002611da4565b6115fe906002611c75565b67ffffffffffffffff81111561161657611616611a8f565b6040519080825280601f01601f191660200182016040528015611640576020820181803683370190505b5090507f30000000000000000000000000000000000000000000000000000000000000008160008151811061167757611677611c03565b60200101907effffffffffffffffffffffffffffffffffffffffffffffffffffffffffffff1916908160001a9053507f7800000000000000000000000000000000000000000000000000000000000000816001815181106116da576116da611c03565b60200101907effffffffffffffffffffffffffffffffffffffffffffffffffffffffffffff1916908160001a9053506000611716846002611da4565b611721906001611c75565b90505b60018111156117be577f303132333435363738396162636465660000000000000000000000000000000085600f166010811061176257611762611c03565b1a60f81b82828151811061177857611778611c03565b60200101907effffffffffffffffffffffffffffffffffffffffffffffffffffffffffffff1916908160001a90535060049490941c936117b781611de1565b9050611724565b50831561180d5760405162461bcd60e51b815260206004820181905260248201527f537472696e67733a20686578206c656e67746820696e73756666696369656e7460448201526064016105c0565b9392505050565b61181d816113cf565b60405173ffffffffffffffffffffffffffffffffffffffff8216907fbc7cd75a20ee27fd9adebab32041f755214dbc6bffa90cc0225b39da2e5c2d3b90600090a250565b606073ffffffffffffffffffffffffffffffffffffffff83163b6118ed5760405162461bcd60e51b815260206004820152602660248201527f416464726573733a2064656c65676174652063616c6c20746f206e6f6e2d636f60448201527f6e7472616374000000000000000000000000000000000000000000000000000060648201526084016105c0565b6000808473ffffffffffffffffffffffffffffffffffffffff16846040516119159190611e16565b600060405180830381855af49150503d8060008114611950576040519150601f19603f3d011682016040523d82523d6000602084013e611955565b606091505b509150915061197d8282604051806060016040528060278152602001611e3360279139611986565b95945050505050565b6060831561199557508161180d565b61180d83838151156119aa5781518083602001fd5b8060405162461bcd60e51b81526004016105c09190611d53565b6000602082840312156119d657600080fd5b81357fffffffff000000000000000000000000000000000000000000000000000000008116811461180d57600080fd5b600060208284031215611a1857600080fd5b5035919050565b803573ffffffffffffffffffffffffffffffffffffffff81168114611a4357600080fd5b919050565b60008060408385031215611a5b57600080fd5b82359150611a6b60208401611a1f565b90509250929050565b600060208284031215611a8657600080fd5b61180d82611a1f565b7f4e487b7100000000000000000000000000000000000000000000000000000000600052604160045260246000fd5b60008060408385031215611ad157600080fd5b611ada83611a1f565b9150602083013567ffffffffffffffff80821115611af757600080fd5b818501915085601f830112611b0b57600080fd5b813581811115611b1d57611b1d611a8f565b604051601f82017fffffffffffffffffffffffffffffffffffffffffffffffffffffffffffffffe0908116603f01168101908382118183101715611b6357611b63611a8f565b81604052828152886020848701011115611b7c57600080fd5b8260208601602083013760006020848301015280955050505050509250929050565b60008060408385031215611bb157600080fd5b50508035926020909101359150565b7f4e487b7100000000000000000000000000000000000000000000000000000000600052601260045260246000fd5b600082611bfe57611bfe611bc0565b500690565b7f4e487b7100000000000000000000000000000000000000000000000000000000600052603260045260246000fd5b7f4e487b7100000000000000000000000000000000000000000000000000000000600052601160045260246000fd5b600082611c7057611c70611bc0565b500490565b60008219821115611c8857611c88611c32565b500190565b600060208284031215611c9f57600080fd5b5051919050565b60005b83811015611cc1578181015183820152602001611ca9565b838111156114e45750506000910152565b7f416363657373436f6e74726f6c3a206163636f756e7420000000000000000000815260008351611d0a816017850160208801611ca6565b7f206973206d697373696e6720726f6c65200000000000000000000000000000006017918401918201528351611d47816028840160208801611ca6565b01602801949350505050565b6020815260008251806020840152611d72816040850160208701611ca6565b601f017fffffffffffffffffffffffffffffffffffffffffffffffffffffffffffffffe0169190910160400192915050565b6000817fffffffffffffffffffffffffffffffffffffffffffffffffffffffffffffffff0483118215151615611ddc57611ddc611c32565b500290565b600081611df057611df0611c32565b507fffffffffffffffffffffffffffffffffffffffffffffffffffffffffffffffff0190565b60008251611e28818460208701611ca6565b919091019291505056fe416464726573733a206c6f772d6c6576656c2064656c65676174652063616c6c206661696c6564a26469706673582212205920751f21ced24ecd1f26f0c7173b8d37c5eeb9561174146e151de43fa6db2764736f6c63430008090033",
  "linkReferences": {},
  "deployedLinkReferences": {}
}