{
  "_format": "hh-sol-artifact-1",
  "contractName": "FuelERC20Gateway",
  "sourceName": "contracts/messaging/gateway/FuelERC20Gateway.sol",
  "abi": [
    {
      "inputs": [],
      "stateMutability": "nonpayable",
      "type": "constructor"
    },
    {
      "inputs": [],
      "name": "CallerIsNotPortal",
      "type": "error"
    },
    {
      "inputs": [],
      "name": "InvalidMessageSender",
      "type": "error"
    },
    {
      "anonymous": false,
      "inputs": [
        {
          "indexed": false,
          "internalType": "address",
          "name": "previousAdmin",
          "type": "address"
        },
        {
          "indexed": false,
          "internalType": "address",
          "name": "newAdmin",
          "type": "address"
        }
      ],
      "name": "AdminChanged",
      "type": "event"
    },
    {
      "anonymous": false,
      "inputs": [
        {
          "indexed": true,
          "internalType": "address",
          "name": "beacon",
          "type": "address"
        }
      ],
      "name": "BeaconUpgraded",
      "type": "event"
    },
    {
      "anonymous": false,
      "inputs": [
        {
          "indexed": true,
          "internalType": "bytes32",
          "name": "sender",
          "type": "bytes32"
        },
        {
          "indexed": true,
          "internalType": "address",
          "name": "tokenAddress",
          "type": "address"
        },
        {
          "indexed": true,
          "internalType": "bytes32",
          "name": "fuelContractId",
          "type": "bytes32"
        },
        {
          "indexed": false,
          "internalType": "uint256",
          "name": "amount",
          "type": "uint256"
        }
      ],
      "name": "Deposit",
      "type": "event"
    },
    {
      "anonymous": false,
      "inputs": [
        {
          "indexed": false,
          "internalType": "uint8",
          "name": "version",
          "type": "uint8"
        }
      ],
      "name": "Initialized",
      "type": "event"
    },
    {
      "anonymous": false,
      "inputs": [
        {
          "indexed": false,
          "internalType": "address",
          "name": "account",
          "type": "address"
        }
      ],
      "name": "Paused",
      "type": "event"
    },
    {
      "anonymous": false,
      "inputs": [
        {
          "indexed": true,
          "internalType": "bytes32",
          "name": "role",
          "type": "bytes32"
        },
        {
          "indexed": true,
          "internalType": "bytes32",
          "name": "previousAdminRole",
          "type": "bytes32"
        },
        {
          "indexed": true,
          "internalType": "bytes32",
          "name": "newAdminRole",
          "type": "bytes32"
        }
      ],
      "name": "RoleAdminChanged",
      "type": "event"
    },
    {
      "anonymous": false,
      "inputs": [
        {
          "indexed": true,
          "internalType": "bytes32",
          "name": "role",
          "type": "bytes32"
        },
        {
          "indexed": true,
          "internalType": "address",
          "name": "account",
          "type": "address"
        },
        {
          "indexed": true,
          "internalType": "address",
          "name": "sender",
          "type": "address"
        }
      ],
      "name": "RoleGranted",
      "type": "event"
    },
    {
      "anonymous": false,
      "inputs": [
        {
          "indexed": true,
          "internalType": "bytes32",
          "name": "role",
          "type": "bytes32"
        },
        {
          "indexed": true,
          "internalType": "address",
          "name": "account",
          "type": "address"
        },
        {
          "indexed": true,
          "internalType": "address",
          "name": "sender",
          "type": "address"
        }
      ],
      "name": "RoleRevoked",
      "type": "event"
    },
    {
      "anonymous": false,
      "inputs": [
        {
          "indexed": false,
          "internalType": "address",
          "name": "account",
          "type": "address"
        }
      ],
      "name": "Unpaused",
      "type": "event"
    },
    {
      "anonymous": false,
      "inputs": [
        {
          "indexed": true,
          "internalType": "address",
          "name": "implementation",
          "type": "address"
        }
      ],
      "name": "Upgraded",
      "type": "event"
    },
    {
      "anonymous": false,
      "inputs": [
        {
          "indexed": true,
          "internalType": "bytes32",
          "name": "recipient",
          "type": "bytes32"
        },
        {
          "indexed": true,
          "internalType": "address",
          "name": "tokenAddress",
          "type": "address"
        },
        {
          "indexed": true,
          "internalType": "bytes32",
          "name": "fuelContractId",
          "type": "bytes32"
        },
        {
          "indexed": false,
          "internalType": "uint256",
          "name": "amount",
          "type": "uint256"
        }
      ],
      "name": "Withdrawal",
      "type": "event"
    },
    {
      "inputs": [],
      "name": "DEFAULT_ADMIN_ROLE",
      "outputs": [
        {
          "internalType": "bytes32",
          "name": "",
          "type": "bytes32"
        }
      ],
      "stateMutability": "view",
      "type": "function"
    },
    {
      "inputs": [],
      "name": "DEPOSIT_TO_CONTRACT",
      "outputs": [
        {
          "internalType": "bytes1",
          "name": "",
          "type": "bytes1"
        }
      ],
      "stateMutability": "view",
      "type": "function"
    },
    {
      "inputs": [],
      "name": "PAUSER_ROLE",
      "outputs": [
        {
          "internalType": "bytes32",
          "name": "",
          "type": "bytes32"
        }
      ],
      "stateMutability": "view",
      "type": "function"
    },
    {
      "inputs": [
        {
          "internalType": "bytes32",
          "name": "to",
          "type": "bytes32"
        },
        {
          "internalType": "address",
          "name": "tokenAddress",
          "type": "address"
        },
        {
          "internalType": "bytes32",
          "name": "fuelContractId",
          "type": "bytes32"
        },
        {
          "internalType": "uint256",
          "name": "amount",
          "type": "uint256"
        }
      ],
      "name": "deposit",
      "outputs": [],
      "stateMutability": "payable",
      "type": "function"
    },
    {
      "inputs": [
        {
          "internalType": "bytes32",
          "name": "to",
          "type": "bytes32"
        },
        {
          "internalType": "address",
          "name": "tokenAddress",
          "type": "address"
        },
        {
          "internalType": "bytes32",
          "name": "fuelContractId",
          "type": "bytes32"
        },
        {
          "internalType": "uint256",
          "name": "amount",
          "type": "uint256"
        },
        {
          "internalType": "bytes",
          "name": "data",
          "type": "bytes"
        }
      ],
      "name": "depositWithData",
      "outputs": [],
      "stateMutability": "payable",
      "type": "function"
    },
    {
      "inputs": [
        {
          "internalType": "address",
          "name": "to",
          "type": "address"
        },
        {
          "internalType": "address",
          "name": "tokenAddress",
          "type": "address"
        },
        {
          "internalType": "uint256",
          "name": "amount",
          "type": "uint256"
        },
        {
          "internalType": "uint256",
          "name": "tokenId",
          "type": "uint256"
        }
      ],
      "name": "finalizeWithdrawal",
      "outputs": [],
      "stateMutability": "payable",
      "type": "function"
    },
    {
      "inputs": [],
      "name": "fuelMessagePortal",
      "outputs": [
        {
          "internalType": "address",
          "name": "",
          "type": "address"
        }
      ],
      "stateMutability": "view",
      "type": "function"
    },
    {
      "inputs": [
        {
          "internalType": "bytes32",
          "name": "role",
          "type": "bytes32"
        }
      ],
      "name": "getRoleAdmin",
      "outputs": [
        {
          "internalType": "bytes32",
          "name": "",
          "type": "bytes32"
        }
      ],
      "stateMutability": "view",
      "type": "function"
    },
    {
      "inputs": [
        {
          "internalType": "bytes32",
          "name": "role",
          "type": "bytes32"
        },
        {
          "internalType": "address",
          "name": "account",
          "type": "address"
        }
      ],
      "name": "grantRole",
      "outputs": [],
      "stateMutability": "nonpayable",
      "type": "function"
    },
    {
      "inputs": [
        {
          "internalType": "bytes32",
          "name": "role",
          "type": "bytes32"
        },
        {
          "internalType": "address",
          "name": "account",
          "type": "address"
        }
      ],
      "name": "hasRole",
      "outputs": [
        {
          "internalType": "bool",
          "name": "",
          "type": "bool"
        }
      ],
      "stateMutability": "view",
      "type": "function"
    },
    {
      "inputs": [
        {
          "internalType": "contract FuelMessagePortal",
          "name": "fuelMessagePortal",
          "type": "address"
        }
      ],
      "name": "initialize",
      "outputs": [],
      "stateMutability": "nonpayable",
      "type": "function"
    },
    {
      "inputs": [],
      "name": "pause",
      "outputs": [],
      "stateMutability": "nonpayable",
      "type": "function"
    },
    {
      "inputs": [],
      "name": "paused",
      "outputs": [
        {
          "internalType": "bool",
          "name": "",
          "type": "bool"
        }
      ],
      "stateMutability": "view",
      "type": "function"
    },
    {
      "inputs": [],
      "name": "proxiableUUID",
      "outputs": [
        {
          "internalType": "bytes32",
          "name": "",
          "type": "bytes32"
        }
      ],
      "stateMutability": "view",
      "type": "function"
    },
    {
      "inputs": [
        {
          "internalType": "bytes32",
          "name": "role",
          "type": "bytes32"
        },
        {
          "internalType": "address",
          "name": "account",
          "type": "address"
        }
      ],
      "name": "renounceRole",
      "outputs": [],
      "stateMutability": "nonpayable",
      "type": "function"
    },
    {
      "inputs": [],
      "name": "rescueETH",
      "outputs": [],
      "stateMutability": "payable",
      "type": "function"
    },
    {
      "inputs": [
        {
          "internalType": "bytes32",
          "name": "role",
          "type": "bytes32"
        },
        {
          "internalType": "address",
          "name": "account",
          "type": "address"
        }
      ],
      "name": "revokeRole",
      "outputs": [],
      "stateMutability": "nonpayable",
      "type": "function"
    },
    {
      "inputs": [
        {
          "internalType": "bytes4",
          "name": "interfaceId",
          "type": "bytes4"
        }
      ],
      "name": "supportsInterface",
      "outputs": [
        {
          "internalType": "bool",
          "name": "",
          "type": "bool"
        }
      ],
      "stateMutability": "view",
      "type": "function"
    },
    {
      "inputs": [
        {
          "internalType": "address",
          "name": "tokenAddress",
          "type": "address"
        },
        {
          "internalType": "bytes32",
          "name": "fuelContractId",
          "type": "bytes32"
        }
      ],
      "name": "tokensDeposited",
      "outputs": [
        {
          "internalType": "uint256",
          "name": "",
          "type": "uint256"
        }
      ],
      "stateMutability": "view",
      "type": "function"
    },
    {
      "inputs": [],
      "name": "unpause",
      "outputs": [],
      "stateMutability": "nonpayable",
      "type": "function"
    },
    {
      "inputs": [
        {
          "internalType": "address",
          "name": "newImplementation",
          "type": "address"
        }
      ],
      "name": "upgradeTo",
      "outputs": [],
      "stateMutability": "nonpayable",
      "type": "function"
    },
    {
      "inputs": [
        {
          "internalType": "address",
          "name": "newImplementation",
          "type": "address"
        },
        {
          "internalType": "bytes",
          "name": "data",
          "type": "bytes"
        }
      ],
      "name": "upgradeToAndCall",
      "outputs": [],
      "stateMutability": "payable",
      "type": "function"
    }
  ],
  "bytecode": "0x60a0604052306080523480156200001557600080fd5b506200002062000026565b620000e8565b600054610100900460ff1615620000935760405162461bcd60e51b815260206004820152602760248201527f496e697469616c697a61626c653a20636f6e747261637420697320696e697469604482015266616c697a696e6760c81b606482015260840160405180910390fd5b60005460ff9081161015620000e6576000805460ff191660ff9081179091556040519081527f7f26b83ff96e1f2b6a682f133852f6798a09c465da95921460cefb38474024989060200160405180910390a15b565b6080516127866200012060003960008181610668015281816106fe0152818161087b015281816109110152610a0801526127866000f3fe6080604052600436106101755760003560e01c806352d1902d116100cb57806391d148541161007f578063c4d66de811610059578063c4d66de814610435578063d547741f14610455578063e63ab1e91461047557600080fd5b806391d1485414610396578063a217fddf146103dc578063ae04ec40146103f157600080fd5b806364a7fad9116100b057806364a7fad91461035b57806382afb5e11461036e5780638456cb591461038157600080fd5b806352d1902d1461032e5780635c975abb1461034357600080fd5b80633659cfe61161012d57806347aaa5091161010757806347aaa5091461027f5780634f1ef286146102e45780635176a43d146102f757600080fd5b80633659cfe6146102375780633ab09beb146102575780633f4ba83a1461026a57600080fd5b8063248a9ca31161015e578063248a9ca3146101b95780632f2ff15d146101f757806336568abe1461021757600080fd5b806301ffc9a71461017a57806320800a00146101af575b600080fd5b34801561018657600080fd5b5061019a610195366004612141565b6104a9565b60405190151581526020015b60405180910390f35b6101b7610542565b005b3480156101c557600080fd5b506101e96101d4366004612183565b600090815260c8602052604090206001015490565b6040519081526020016101a6565b34801561020357600080fd5b506101b76102123660046121b1565b6105a6565b34801561022357600080fd5b506101b76102323660046121b1565b6105d0565b34801561024357600080fd5b506101b76102523660046121e1565b61065d565b6101b76102653660046121fe565b6107fb565b34801561027657600080fd5b506101b761085d565b34801561028b57600080fd5b506102b37f9de96e965c10cc5335684b75df5a9ba1dd4ff5d07baf3989affd5e9a8efb85ad81565b6040517fff0000000000000000000000000000000000000000000000000000000000000090911681526020016101a6565b6101b76102f236600461226a565b610870565b34801561030357600080fd5b506000546201000090046001600160a01b03166040516001600160a01b0390911681526020016101a6565b34801561033a57600080fd5b506101e96109fb565b34801561034f57600080fd5b5060645460ff1661019a565b6101b761036936600461234c565b610ac0565b6101b761037c36600461237d565b610c9e565b34801561038d57600080fd5b506101b7610d19565b3480156103a257600080fd5b5061019a6103b13660046121b1565b600091825260c8602090815260408084206001600160a01b0393909316845291905290205460ff1690565b3480156103e857600080fd5b506101e9600081565b3480156103fd57600080fd5b506101e961040c36600461241e565b6001600160a01b0391909116600090815261015e60209081526040808320938352929052205490565b34801561044157600080fd5b506101b76104503660046121e1565b610d4b565b34801561046157600080fd5b506101b76104703660046121b1565b610ef3565b34801561048157600080fd5b506101e97f65d7a28e3265b37a6474929f336521b332c1681b933f6cb9f3376673440d862a81565b60007fffffffff0000000000000000000000000000000000000000000000000000000082167f7965db0b00000000000000000000000000000000000000000000000000000000148061053c57507f01ffc9a7000000000000000000000000000000000000000000000000000000007fffffffff000000000000000000000000000000000000000000000000000000008316145b92915050565b600061054d81610f18565b604051600090339047908381818185875af1925050503d806000811461058f576040519150601f19603f3d011682016040523d82523d6000602084013e610594565b606091505b50509050806105a257600080fd5b5050565b600082815260c860205260409020600101546105c181610f18565b6105cb8383610f22565b505050565b6001600160a01b03811633146106535760405162461bcd60e51b815260206004820152602f60248201527f416363657373436f6e74726f6c3a2063616e206f6e6c792072656e6f756e636560448201527f20726f6c657320666f722073656c66000000000000000000000000000000000060648201526084015b60405180910390fd5b6105a28282610fc4565b306001600160a01b037f00000000000000000000000000000000000000000000000000000000000000001614156106fc5760405162461bcd60e51b815260206004820152602c60248201527f46756e6374696f6e206d7573742062652063616c6c6564207468726f7567682060448201527f64656c656761746563616c6c0000000000000000000000000000000000000000606482015260840161064a565b7f00000000000000000000000000000000000000000000000000000000000000006001600160a01b03166107577f360894a13ba1a3210667c828492db98dca3e2076cc3735a920a3ca505d382bbc546001600160a01b031690565b6001600160a01b0316146107d35760405162461bcd60e51b815260206004820152602c60248201527f46756e6374696f6e206d7573742062652063616c6c6564207468726f7567682060448201527f6163746976652070726f78790000000000000000000000000000000000000000606482015260840161064a565b6107dc81611047565b604080516000808252602082019092526107f891839190611052565b50565b61080361121f565b60408051602081018490526001600160a01b038516818301526000606082015233608082015260a0810186905260c08082018490528251808303909101815260e090910190915261085684848484611274565b5050505050565b600061086881610f18565b6107f86113a0565b306001600160a01b037f000000000000000000000000000000000000000000000000000000000000000016141561090f5760405162461bcd60e51b815260206004820152602c60248201527f46756e6374696f6e206d7573742062652063616c6c6564207468726f7567682060448201527f64656c656761746563616c6c0000000000000000000000000000000000000000606482015260840161064a565b7f00000000000000000000000000000000000000000000000000000000000000006001600160a01b031661096a7f360894a13ba1a3210667c828492db98dca3e2076cc3735a920a3ca505d382bbc546001600160a01b031690565b6001600160a01b0316146109e65760405162461bcd60e51b815260206004820152602c60248201527f46756e6374696f6e206d7573742062652063616c6c6564207468726f7567682060448201527f6163746976652070726f78790000000000000000000000000000000000000000606482015260840161064a565b6109ef82611047565b6105a282826001611052565b6000306001600160a01b037f00000000000000000000000000000000000000000000000000000000000000001614610a9b5760405162461bcd60e51b815260206004820152603860248201527f555550535570677261646561626c653a206d757374206e6f742062652063616c60448201527f6c6564207468726f7567682064656c656761746563616c6c0000000000000000606482015260840161064a565b507f360894a13ba1a3210667c828492db98dca3e2076cc3735a920a3ca505d382bbc90565b610ac861121f565b6000546201000090046001600160a01b03163314610b12576040517f5c5536bd00000000000000000000000000000000000000000000000000000000815260040160405180910390fd5b60008211610b625760405162461bcd60e51b815260206004820152601460248201527f43616e6e6f74207769746864726177207a65726f000000000000000000000000604482015260640161064a565b8015610bd65760405162461bcd60e51b815260206004820152602560248201527f46756e6769626c6520746f6b656e732063616e6e6f742068617665206120746f60448201527f6b656e4964000000000000000000000000000000000000000000000000000000606482015260840161064a565b6000610be06113f2565b6001600160a01b038516600090815261015e60209081526040808320848452909152902054909150610c13908490612479565b6001600160a01b038516600081815261015e60209081526040808320868452909152902091909155610c4690868561147e565b80846001600160a01b0316866001600160a01b031660001b7f7b1dbb7a94949c5c35d1508d41067bc208c0cbd120653b73c8ebd979c63e16b286604051610c8f91815260200190565b60405180910390a45050505050565b610ca661121f565b604051600090610cf39086906001600160a01b03891690849033908c908a907f9de96e965c10cc5335684b75df5a9ba1dd4ff5d07baf3989affd5e9a8efb85ad908b908b90602001612490565b6040516020818303038152906040529050610d1086868684611274565b50505050505050565b7f65d7a28e3265b37a6474929f336521b332c1681b933f6cb9f3376673440d862a610d4381610f18565b6107f8611545565b600054610100900460ff1615808015610d6b5750600054600160ff909116105b80610d855750303b158015610d85575060005460ff166001145b610df75760405162461bcd60e51b815260206004820152602e60248201527f496e697469616c697a61626c653a20636f6e747261637420697320616c72656160448201527f647920696e697469616c697a6564000000000000000000000000000000000000606482015260840161064a565b6000805460ff191660011790558015610e3757600080547fffffffffffffffffffffffffffffffffffffffffffffffffffffffffffff00ff166101001790555b610e4082611582565b610e48611608565b610e5061168d565b610e5861168d565b610e63600033610f22565b610e8d7f65d7a28e3265b37a6474929f336521b332c1681b933f6cb9f3376673440d862a33610f22565b80156105a257600080547fffffffffffffffffffffffffffffffffffffffffffffffffffffffffffff00ff169055604051600181527f7f26b83ff96e1f2b6a682f133852f6798a09c465da95921460cefb38474024989060200160405180910390a15050565b600082815260c86020526040902060010154610f0e81610f18565b6105cb8383610fc4565b6107f8813361170a565b600082815260c8602090815260408083206001600160a01b038516845290915290205460ff166105a257600082815260c8602090815260408083206001600160a01b03851684529091529020805460ff19166001179055610f803390565b6001600160a01b0316816001600160a01b0316837f2f8788117e7eff1d82e926ec794901d17c78024a50270940304540a733656f0d60405160405180910390a45050565b600082815260c8602090815260408083206001600160a01b038516845290915290205460ff16156105a257600082815260c8602090815260408083206001600160a01b0385168085529252808320805460ff1916905551339285917ff6391f5c32d9c69d2a47ea670b442974b53935d1edc7fd64eb21e047a839171b9190a45050565b60006105a281610f18565b7f4910fdfa16fed3260ed0e7147f7cc6da11a60208b5b9406d12a635614ffd91435460ff1615611085576105cb8361179d565b826001600160a01b03166352d1902d6040518163ffffffff1660e01b815260040160206040518083038186803b1580156110be57600080fd5b505afa92505050801561110c575060408051601f3d9081017fffffffffffffffffffffffffffffffffffffffffffffffffffffffffffffffe0168201909252611109918101906124f6565b60015b61117e5760405162461bcd60e51b815260206004820152602e60248201527f45524331393637557067726164653a206e657720696d706c656d656e7461746960448201527f6f6e206973206e6f742055555053000000000000000000000000000000000000606482015260840161064a565b7f360894a13ba1a3210667c828492db98dca3e2076cc3735a920a3ca505d382bbc81146112135760405162461bcd60e51b815260206004820152602960248201527f45524331393637557067726164653a20756e737570706f727465642070726f7860448201527f6961626c65555549440000000000000000000000000000000000000000000000606482015260840161064a565b506105cb838383611873565b60645460ff16156112725760405162461bcd60e51b815260206004820152601060248201527f5061757361626c653a2070617573656400000000000000000000000000000000604482015260640161064a565b565b600082116112c45760405162461bcd60e51b815260206004820152601360248201527f43616e6e6f74206465706f736974207a65726f00000000000000000000000000604482015260640161064a565b6112d96001600160a01b03851633308561189e565b6001600160a01b038416600090815261015e6020908152604080832086845290915290205461130990839061250f565b6001600160a01b038516600090815261015e602090815260408083208784529091529020556113587f86a8f7487cb0d3faca1895173d5ff35c1e839bd2ab88657eede9933ea8988815826118ef565b60405182815283906001600160a01b0386169033907f7b8033c50ae5dba139b35a4f92bf1257c21954d40291216edcfc992920ef84b49060200160405180910390a450505050565b6113a8611975565b6064805460ff191690557f5db9ee0a495bf2e6ff9c91a7834c1ba4fdd244a5e8aa4e537bd38aeae4b073aa335b6040516001600160a01b03909116815260200160405180910390a1565b60008060029054906101000a90046001600160a01b03166001600160a01b031663d67bdd256040518163ffffffff1660e01b815260040160206040518083038186803b15801561144157600080fd5b505afa158015611455573d6000803e3d6000fd5b505050506040513d601f19601f8201168201806040525081019061147991906124f6565b905090565b6040516001600160a01b0383166024820152604481018290526105cb9084907fa9059cbb00000000000000000000000000000000000000000000000000000000906064015b604080517fffffffffffffffffffffffffffffffffffffffffffffffffffffffffffffffe08184030181529190526020810180517bffffffffffffffffffffffffffffffffffffffffffffffffffffffff167fffffffff00000000000000000000000000000000000000000000000000000000909316929092179091526119c7565b61154d61121f565b6064805460ff191660011790557f62e78cea01bee320cd4e420270b5ea74000d11b0c9f74754ebdbfc544b05a2586113d53390565b600054610100900460ff166115ff5760405162461bcd60e51b815260206004820152602b60248201527f496e697469616c697a61626c653a20636f6e7472616374206973206e6f74206960448201527f6e697469616c697a696e67000000000000000000000000000000000000000000606482015260840161064a565b6107f881611aac565b600054610100900460ff166116855760405162461bcd60e51b815260206004820152602b60248201527f496e697469616c697a61626c653a20636f6e7472616374206973206e6f74206960448201527f6e697469616c697a696e67000000000000000000000000000000000000000000606482015260840161064a565b611272611b69565b600054610100900460ff166112725760405162461bcd60e51b815260206004820152602b60248201527f496e697469616c697a61626c653a20636f6e7472616374206973206e6f74206960448201527f6e697469616c697a696e67000000000000000000000000000000000000000000606482015260840161064a565b600082815260c8602090815260408083206001600160a01b038516845290915290205460ff166105a25761173d81611bf2565b611748836020611c04565b604051602001611759929190612553565b604080517fffffffffffffffffffffffffffffffffffffffffffffffffffffffffffffffe08184030181529082905262461bcd60e51b825261064a9160040161261e565b6001600160a01b0381163b61181a5760405162461bcd60e51b815260206004820152602d60248201527f455243313936373a206e657720696d706c656d656e746174696f6e206973206e60448201527f6f74206120636f6e747261637400000000000000000000000000000000000000606482015260840161064a565b7f360894a13ba1a3210667c828492db98dca3e2076cc3735a920a3ca505d382bbc80547fffffffffffffffffffffffff0000000000000000000000000000000000000000166001600160a01b0392909216919091179055565b61187c83611e34565b6000825111806118895750805b156105cb576118988383611e74565b50505050565b6040516001600160a01b03808516602483015283166044820152606481018290526118989085907f23b872dd00000000000000000000000000000000000000000000000000000000906084016114c3565b6000546040517f23c640e7000000000000000000000000000000000000000000000000000000008152620100009091046001600160a01b0316906323c640e79061193f9085908590600401612631565b600060405180830381600087803b15801561195957600080fd5b505af115801561196d573d6000803e3d6000fd5b505050505050565b60645460ff166112725760405162461bcd60e51b815260206004820152601460248201527f5061757361626c653a206e6f7420706175736564000000000000000000000000604482015260640161064a565b6000611a1c826040518060400160405280602081526020017f5361666545524332303a206c6f772d6c6576656c2063616c6c206661696c6564815250856001600160a01b0316611f7f9092919063ffffffff16565b8051909150156105cb5780806020019051810190611a3a919061264a565b6105cb5760405162461bcd60e51b815260206004820152602a60248201527f5361666545524332303a204552433230206f7065726174696f6e20646964206e60448201527f6f74207375636365656400000000000000000000000000000000000000000000606482015260840161064a565b600054610100900460ff16611b295760405162461bcd60e51b815260206004820152602b60248201527f496e697469616c697a61626c653a20636f6e7472616374206973206e6f74206960448201527f6e697469616c697a696e67000000000000000000000000000000000000000000606482015260840161064a565b600080546001600160a01b0390921662010000027fffffffffffffffffffff0000000000000000000000000000000000000000ffff909216919091179055565b600054610100900460ff16611be65760405162461bcd60e51b815260206004820152602b60248201527f496e697469616c697a61626c653a20636f6e7472616374206973206e6f74206960448201527f6e697469616c697a696e67000000000000000000000000000000000000000000606482015260840161064a565b6064805460ff19169055565b606061053c6001600160a01b03831660145b60606000611c1383600261266c565b611c1e90600261250f565b67ffffffffffffffff811115611c3657611c3661223b565b6040519080825280601f01601f191660200182016040528015611c60576020820181803683370190505b5090507f300000000000000000000000000000000000000000000000000000000000000081600081518110611c9757611c976126a9565b60200101907effffffffffffffffffffffffffffffffffffffffffffffffffffffffffffff1916908160001a9053507f780000000000000000000000000000000000000000000000000000000000000081600181518110611cfa57611cfa6126a9565b60200101907effffffffffffffffffffffffffffffffffffffffffffffffffffffffffffff1916908160001a9053506000611d3684600261266c565b611d4190600161250f565b90505b6001811115611dde577f303132333435363738396162636465660000000000000000000000000000000085600f1660108110611d8257611d826126a9565b1a60f81b828281518110611d9857611d986126a9565b60200101907effffffffffffffffffffffffffffffffffffffffffffffffffffffffffffff1916908160001a90535060049490941c93611dd7816126d8565b9050611d44565b508315611e2d5760405162461bcd60e51b815260206004820181905260248201527f537472696e67733a20686578206c656e67746820696e73756666696369656e74604482015260640161064a565b9392505050565b611e3d8161179d565b6040516001600160a01b038216907fbc7cd75a20ee27fd9adebab32041f755214dbc6bffa90cc0225b39da2e5c2d3b90600090a250565b60606001600160a01b0383163b611ef35760405162461bcd60e51b815260206004820152602660248201527f416464726573733a2064656c65676174652063616c6c20746f206e6f6e2d636f60448201527f6e74726163740000000000000000000000000000000000000000000000000000606482015260840161064a565b600080846001600160a01b031684604051611f0e919061270d565b600060405180830381855af49150503d8060008114611f49576040519150601f19603f3d011682016040523d82523d6000602084013e611f4e565b606091505b5091509150611f76828260405180606001604052806027815260200161272a60279139611f96565b95945050505050565b6060611f8e8484600085611faf565b949350505050565b60608315611fa5575081611e2d565b611e2d83836120a1565b6060824710156120275760405162461bcd60e51b815260206004820152602660248201527f416464726573733a20696e73756666696369656e742062616c616e636520666f60448201527f722063616c6c0000000000000000000000000000000000000000000000000000606482015260840161064a565b600080866001600160a01b03168587604051612043919061270d565b60006040518083038185875af1925050503d8060008114612080576040519150601f19603f3d011682016040523d82523d6000602084013e612085565b606091505b5091509150612096878383876120cb565b979650505050505050565b8151156120b15781518083602001fd5b8060405162461bcd60e51b815260040161064a919061261e565b60608315612137578251612130576001600160a01b0385163b6121305760405162461bcd60e51b815260206004820152601d60248201527f416464726573733a2063616c6c20746f206e6f6e2d636f6e7472616374000000604482015260640161064a565b5081611f8e565b611f8e83836120a1565b60006020828403121561215357600080fd5b81357fffffffff0000000000000000000000000000000000000000000000000000000081168114611e2d57600080fd5b60006020828403121561219557600080fd5b5035919050565b6001600160a01b03811681146107f857600080fd5b600080604083850312156121c457600080fd5b8235915060208301356121d68161219c565b809150509250929050565b6000602082840312156121f357600080fd5b8135611e2d8161219c565b6000806000806080858703121561221457600080fd5b8435935060208501356122268161219c565b93969395505050506040820135916060013590565b7f4e487b7100000000000000000000000000000000000000000000000000000000600052604160045260246000fd5b6000806040838503121561227d57600080fd5b82356122888161219c565b9150602083013567ffffffffffffffff808211156122a557600080fd5b818501915085601f8301126122b957600080fd5b8135818111156122cb576122cb61223b565b604051601f82017fffffffffffffffffffffffffffffffffffffffffffffffffffffffffffffffe0908116603f011681019083821181831017156123115761231161223b565b8160405282815288602084870101111561232a57600080fd5b8260208601602083013760006020848301015280955050505050509250929050565b6000806000806080858703121561236257600080fd5b843561236d8161219c565b935060208501356122268161219c565b60008060008060008060a0878903121561239657600080fd5b8635955060208701356123a88161219c565b94506040870135935060608701359250608087013567ffffffffffffffff808211156123d357600080fd5b818901915089601f8301126123e757600080fd5b8135818111156123f657600080fd5b8a602082850101111561240857600080fd5b6020830194508093505050509295509295509295565b6000806040838503121561243157600080fd5b823561243c8161219c565b946020939093013593505050565b7f4e487b7100000000000000000000000000000000000000000000000000000000600052601160045260246000fd5b60008282101561248b5761248b61244a565b500390565b8981528860208201528760408201528660608201528560808201528460a08201527fff00000000000000000000000000000000000000000000000000000000000000841660c0820152818360c18301376000910160c10190815298975050505050505050565b60006020828403121561250857600080fd5b5051919050565b600082198211156125225761252261244a565b500190565b60005b8381101561254257818101518382015260200161252a565b838111156118985750506000910152565b7f416363657373436f6e74726f6c3a206163636f756e742000000000000000000081526000835161258b816017850160208801612527565b7f206973206d697373696e6720726f6c652000000000000000000000000000000060179184019182015283516125c8816028840160208801612527565b01602801949350505050565b600081518084526125ec816020860160208601612527565b601f017fffffffffffffffffffffffffffffffffffffffffffffffffffffffffffffffe0169290920160200192915050565b602081526000611e2d60208301846125d4565b828152604060208201526000611f8e60408301846125d4565b60006020828403121561265c57600080fd5b81518015158114611e2d57600080fd5b6000817fffffffffffffffffffffffffffffffffffffffffffffffffffffffffffffffff04831182151516156126a4576126a461244a565b500290565b7f4e487b7100000000000000000000000000000000000000000000000000000000600052603260045260246000fd5b6000816126e7576126e761244a565b507fffffffffffffffffffffffffffffffffffffffffffffffffffffffffffffffff0190565b6000825161271f818460208701612527565b919091019291505056fe416464726573733a206c6f772d6c6576656c2064656c65676174652063616c6c206661696c6564a26469706673582212209cb58da239e7a69d5a76f65f76627b65c4659ca22ee8950c3e494141b407df5964736f6c63430008090033",
  "linkReferences": {},
  "deployedLinkReferences": {}
}